var contractABI =
  [
    {
      "anonymous": false,
      "inputs": [
        {
          "indexed": true,
          "name": "owner",
          "type": "address"
        },
        {
          "indexed": true,
          "name": "spender",
          "type": "address"
        },
        {
          "indexed": false,
          "name": "value",
          "type": "uint256"
        }
      ],
      "name": "Approval",
      "type": "event"
    },
    {
      "constant": false,
      "inputs": [
        {
          "name": "_spender",
          "type": "address"
        },
        {
          "name": "_value",
          "type": "uint256"
        }
      ],
      "name": "approve",
      "outputs": [
        {
          "name": "",
          "type": "bool"
        }
      ],
      "payable": false,
      "stateMutability": "nonpayable",
      "type": "function"
    },
    {
      "constant": false,
      "inputs": [
        {
          "name": "_value",
          "type": "uint256"
        }
      ],
      "name": "burn",
      "outputs": [],
      "payable": false,
      "stateMutability": "nonpayable",
      "type": "function"
    },
    {
      "constant": false,
      "inputs": [
        {
          "name": "_from",
          "type": "address"
        },
        {
          "name": "_value",
          "type": "uint256"
        }
      ],
      "name": "burnFrom",
      "outputs": [],
      "payable": false,
      "stateMutability": "nonpayable",
      "type": "function"
    },
    {
      "constant": false,
      "inputs": [
        {
          "name": "_spender",
          "type": "address"
        },
        {
          "name": "_subtractedValue",
          "type": "uint256"
        }
      ],
      "name": "decreaseApproval",
      "outputs": [
        {
          "name": "",
          "type": "bool"
        }
      ],
      "payable": false,
      "stateMutability": "nonpayable",
      "type": "function"
    },
    {
      "constant": false,
      "inputs": [
        {
          "name": "_hash",
          "type": "string"
        }
      ],
      "name": "getAmountByHash",
      "outputs": [
        {
          "name": "",
          "type": "uint256"
        }
      ],
      "payable": false,
      "stateMutability": "nonpayable",
      "type": "function"
    },
    {
      "anonymous": false,
      "inputs": [
        {
          "indexed": true,
          "name": "burner",
          "type": "address"
        },
        {
          "indexed": false,
          "name": "value",
          "type": "uint256"
        }
      ],
      "name": "TokensBurned",
      "type": "event"
    },
    {
      "constant": false,
      "inputs": [
        {
          "name": "_address",
          "type": "address"
        },
        {
          "name": "_amount",
          "type": "uint256"
        },
        {
          "name": "_hash",
          "type": "string"
        }
      ],
      "name": "grantCoins",
      "outputs": [],
      "payable": false,
      "stateMutability": "nonpayable",
      "type": "function"
    },
    {
      "anonymous": false,
      "inputs": [
        {
          "indexed": true,
          "name": "from",
          "type": "address"
        },
        {
          "indexed": true,
          "name": "to",
          "type": "address"
        },
        {
          "indexed": false,
          "name": "value",
          "type": "uint256"
        }
      ],
      "name": "Transfer",
      "type": "event"
    },
    {
      "constant": false,
      "inputs": [
        {
          "name": "_spender",
          "type": "address"
        },
        {
          "name": "_addedValue",
          "type": "uint256"
        }
      ],
      "name": "increaseApproval",
      "outputs": [
        {
          "name": "",
          "type": "bool"
        }
      ],
      "payable": false,
      "stateMutability": "nonpayable",
      "type": "function"
    },
    {
      "constant": false,
      "inputs": [
        {
          "name": "_to",
          "type": "address"
        },
        {
          "name": "_value",
          "type": "uint256"
        }
      ],
      "name": "transfer",
      "outputs": [
        {
          "name": "",
          "type": "bool"
        }
      ],
      "payable": false,
      "stateMutability": "nonpayable",
      "type": "function"
    },
    {
      "constant": false,
      "inputs": [
        {
          "name": "_from",
          "type": "address"
        },
        {
          "name": "_to",
          "type": "address"
        },
        {
          "name": "_value",
          "type": "uint256"
        }
      ],
      "name": "transferFrom",
      "outputs": [
        {
          "name": "",
          "type": "bool"
        }
      ],
      "payable": false,
      "stateMutability": "nonpayable",
      "type": "function"
    },
    {
      "inputs": [],
      "payable": true,
      "stateMutability": "payable",
      "type": "constructor"
    },
    {
      "constant": true,
      "inputs": [
        {
          "name": "_owner",
          "type": "address"
        },
        {
          "name": "_spender",
          "type": "address"
        }
      ],
      "name": "allowance",
      "outputs": [
        {
          "name": "",
          "type": "uint256"
        }
      ],
      "payable": false,
      "stateMutability": "view",
      "type": "function"
    },
    {
      "constant": true,
      "inputs": [
        {
          "name": "_owner",
          "type": "address"
        }
      ],
      "name": "balanceOf",
      "outputs": [
        {
          "name": "",
          "type": "uint256"
        }
      ],
      "payable": false,
      "stateMutability": "view",
      "type": "function"
    },
    {
      "constant": true,
      "inputs": [],
      "name": "decimals",
      "outputs": [
        {
          "name": "",
          "type": "uint8"
        }
      ],
      "payable": false,
      "stateMutability": "view",
      "type": "function"
    },
    {
      "constant": true,
      "inputs": [],
      "name": "INITIAL_SUPPLY",
      "outputs": [
        {
          "name": "",
          "type": "uint256"
        }
      ],
      "payable": false,
      "stateMutability": "view",
      "type": "function"
    },
    {
      "constant": true,
      "inputs": [],
      "name": "name",
      "outputs": [
        {
          "name": "",
          "type": "string"
        }
      ],
      "payable": false,
      "stateMutability": "view",
      "type": "function"
    },
    {
      "constant": true,
      "inputs": [],
      "name": "symbol",
      "outputs": [
        {
          "name": "",
          "type": "string"
        }
      ],
      "payable": false,
      "stateMutability": "view",
      "type": "function"
    },
    {
      "constant": true,
      "inputs": [],
      "name": "totalSupply",
      "outputs": [
        {
          "name": "",
          "type": "uint256"
        }
      ],
      "payable": false,
      "stateMutability": "view",
      "type": "function"
    }
  ]
  ;

function addToRopsten() {
  go(true);
}

function getFromRopsten() {
  go(false);
}

function go(addOrGet) {
  // web3 = new Web3(new Web3.providers.HttpProvider('https://ropsten.infura.io/22b273651d424974b7ef0de70a7ed880'));
  // var Web3 = require('web3');
  web3 = new Web3(new Web3.providers.HttpProvider('https://ropsten.infura.io/v3/22b273651d424974b7ef0de70a7ed880'));
  
  console.log(web3.version.api);
  // console.log(web3.eth.getBalance("0x5E042fbaB85dF501dFFB0AAD30e159d15BB388BD"));
  // console.log(web3.eth.getBalance("0xE7253fe2834559604dc917Cbe8420301912d0445"));  
  // web3.eth.defaultAccount=web3.eth.accounts[0];
  // console.log(web3.eth.accounts[0]);

  var myContract = web3.eth.contract(contractABI);
  var contractAddress = '0x6c90732441c99b8c5f2d47f2280e1c5a00da89b6';
  // console.log(myContract.at(contractAddress).getStr());
  if (addOrGet) {
    var myKey = document.getElementById('addKey').value;
    var myAmount = document.getElementById('addAmount').value;
    var walletAddress = '0x5E042fbaB85dF501dFFB0AAD30e159d15BB388BD';
    myContract.at(contractAddress).addMoney.sendTransaction(myKey, myAmount, { from: walletAddress, gasLimit: 400000, gasPrice: 1 }, function (err, ress) {
      alert('err ' + err + ' ress ' + ress);
    });
    // var Tx = require('ethereumjs-tx');
    // var rawTx = {
    //   // nonce: '0x00',
    //   gasPrice: '0x1',
    //   gasLimit: '0x6D7A',
    //   // to: '0x0000000000000000000000000000000000000000', 
    //   // value: '0x00', 
    //   data: '0x4e7774670000000000000000000000000000000000000000000000000000000000000040000000000000000000000000000000000000000000000000000000000000000400000000000000000000000000000000000000000000000000000000000000027177000000000000000000000000000000000000000000000000000000000000'
    // }    
    // var tx = new Tx(rawTx);
    // var privateKey = new Buffer('D3A8EC53B34DA61C8E5E00ED5445424421CAB147E9FFCC1C649FFA1A0A968ED5', 'hex');
    // tx.sign(privateKey);

    // var serializedTx = tx.serialize();
    // // console.log(serializedTx.toString('hex'));
    // // f889808609184e72a00082271094000000000000000000000000000000000000000080a47f74657374320000000000000000000000000000000000000000000000000000006000571ca08a8bbf888cfa37bbf0bb965423625641fc956967b81d12e23709cead01446075a01ce999b56a8a88504be365442ea61239198e23d1fce7d00fcfc5cd3b44b7215f
    // web3.eth.sendRawTransaction('0x' + serializedTx.toString('hex'), function(err, hash) {
    //   if (!err)
    //     console.log(hash); // "0x7f9fade1c0d57a7af66ab4ead79fade1c0d57a7af66ab4ead7c2c2eb7b11a91385"
    // });

  } else {
    alert(myContract.at(contractAddress).balanceOf(document.getElementById('balance_Of').value));
    // console.log(myContract.at(contractAddress).getTotalAmountByK(document.getElementById('getByKey').value));
  }
}